{
  "contractName": "SimpleStorage",
  "abi": [
    {
      "inputs": [
        {
          "internalType": "int256",
          "name": "_a",
          "type": "int256"
        }
      ],
      "name": "setter",
      "outputs": [],
      "stateMutability": "nonpayable",
      "type": "function"
    },
    {
      "inputs": [],
      "name": "getter",
      "outputs": [
        {
          "internalType": "int256",
          "name": "",
          "type": "int256"
        }
      ],
      "stateMutability": "view",
      "type": "function",
      "constant": true
    },
    {
      "inputs": [],
      "name": "getAdd",
      "outputs": [
        {
          "internalType": "address",
          "name": "",
          "type": "address"
        }
      ],
      "stateMutability": "view",
      "type": "function",
      "constant": true
    }
  ],
  "bytecode": "0x6080604052600080556040518060400160405280600581526020017f726164686500000000000000000000000000000000000000000000000000000081525060019080519060200190610053929190610066565b5034801561006057600080fd5b5061016a565b82805461007290610109565b90600052602060002090601f01602090048101928261009457600085556100db565b82601f106100ad57805160ff19168380011785556100db565b828001600101855582156100db579182015b828111156100da5782518255916020019190600101906100bf565b5b5090506100e891906100ec565b5090565b5b808211156101055760008160009055506001016100ed565b5090565b6000600282049050600182168061012157607f821691505b602082108114156101355761013461013b565b5b50919050565b7f4e487b7100000000000000000000000000000000000000000000000000000000600052602260045260246000fd5b6101d4806101796000396000f3fe608060405234801561001057600080fd5b50600436106100415760003560e01c80630ba6708614610046578063993a04b714610062578063d14d42ba14610080575b600080fd5b610060600480360381019061005b91906100ce565b61009e565b005b61006a6100a8565b6040516100779190610130565b60405180910390f35b6100886100b1565b6040516100959190610115565b60405180910390f35b8060008190555050565b60008054905090565b600033905090565b6000813590506100c881610187565b92915050565b6000602082840312156100e057600080fd5b60006100ee848285016100b9565b91505092915050565b6101008161014b565b82525050565b61010f8161015d565b82525050565b600060208201905061012a60008301846100f7565b92915050565b60006020820190506101456000830184610106565b92915050565b600061015682610167565b9050919050565b6000819050919050565b600073ffffffffffffffffffffffffffffffffffffffff82169050919050565b6101908161015d565b811461019b57600080fd5b5056fea264697066735822122081e27edddc814f56b6a9083babf2be66c45884bbff1a11a9c20c0955a990651764736f6c63430008000033",
  "immutableReferences": {},
  "source": "// SPDX-License-Identifier: MIT \r\npragma solidity  ^0.8.0;\r\n\r\ncontract SimpleStorage{\r\n    int a=0;\r\n    string b =\"radhe\";\r\n    // uint256 b;\r\n\r\n    function setter(int _a) public{\r\n        a = _a;\r\n    } \r\n    function getter() public view returns(int){\r\n        return a;\r\n\r\n    }\r\n    function getAdd() public view returns(address){\r\n        return msg.sender;\r\n    }\r\n}\r\n",
  "sourcePath": "D:\\jango webapp\\blockchin_djngo\\contracts\\SimpleStorage.sol",
  "compiler": {
    "name": "solc",
    "version": "0.8.0+commit.c7dfd78e.Emscripten.clang"
  },
  "schemaVersion": "3.4.16",
  "updatedAt": "2024-09-14T22:50:41.501Z",
  "networkType": "ethereum",
  "devdoc": {
    "kind": "dev",
    "methods": {},
    "version": 1
  },
  "userdoc": {
    "kind": "user",
    "methods": {},
    "version": 1
  }
}